:020000040C00EE
:1000000000C8FF1F010200089102000891020008C9
:10001000910200089102000891020008000000000F
:100020000000000000000000000000006130000837
:100030009102000800000000A132000811330008FE
:1000400091020008BD6A000891020008756A000864
:100050008D6A0008A56A0008910200089102000854
:1000600091020008000000000000000000000000F5
:1000700091020008000000009102000891020008AF
:100080009102000891020008910200089102000804
:1000900091020008910200089102000891020008F4
:1000A000910200089102000800000000000000001A
:1000B0000000000000000000000000000000000040
:1000C0000000000000000000000000000000000030
:1000D0000000000000000000000000000000000020
:1000E00000000000000000009102000891020008DA
:1000F0009102000891020008910200089102000894
:100100009102000891020008910200089102000883
:1001100000000000000000000000000000000000DF
:1001200000000000000000000000000000000000CF
:100130009102000891020008910200089102000853
:1001400000000000000000000000000000000000AF
:100150009102000891020008000000000000000069
:100160009102000891020008910200089102000823
:100170009102000891020008910200089102000813
:100180009102000891020008910200089102000803
:1001900091020008910200089102000891020008F3
:1001A0009102000891020008312700082127000869
:1001B00091020008910200089102000891020008D3
:1001C000000000000000000000000000000000002F
:1001D0000000000000000000910200080000000084
:1001E000910200089102000800000000910200083E
:1001F00000000000000000000000000000000000FF
:10020000DFF86CD01B4880471B4C1C4DAC4209DA10
:1002100021686268A368043BA2BFC858D050FAE7BF
:100220000C34F3E7164B174CA34208DA19685A68E6
:100230000020043AA4BF8850FBE70833F4E71248D3
:1002400080471248804700003070000C00C8FF1F34
:10025000C00100003070000C00C8FF1F000000004B
:10026000C0C9FF1F1C0200000000002000000000A9
:1002700000C8FF1F050300084802000860020008CC
:1002800060020008700200084D6B0008AD670008AE
:10029000FEE7000080B584B000AF78600B46FB70CD
:1002A0001346BB70FB78022B06D0032B07D0012B23
:1002B00008D10323FB7305E04323FB7302E02323F0
:1002C000FB7300BFFB7B63F07F03DBB23B73BB7848
:1002D0007B737B689B6807F10C0107F108020846F5
:1002E000114698471037BD4680BD00BF80B582B02B
:1002F00000AF78607B681B68984700231846083772
:10030000BD4680BD98B500AF084A4FF00053144673
:100310000FCB84E80F00064B064A07CA83E80700A4
:1003200005F09EFB05F006FC98BD00BFC45F0020F1
:10033000D45F00208400002080B584B000AF2F4B34
:10034000DB6803F48033002B3ED02D4BDB6803F0D9
:100350000103002B02D02B4BFB6002E005F0E0FB19
:10036000F860274B1B6803F00403002B20D0244BBC
:100370009B6803F070631B0E0133BB60204B9B68CE
:1003800003F4FE431B0A01337B601D4B9B6803F49F
:10039000FE031B0C01333B60BB683A6802FB03F3AE
:1003A000FA68B2FBF3F37A6802FB03F3FB600DE03B
:1003B000134B9B6803F07F0301333B60FA683B6893
:1003C000B2FBF3F3FB6001E00E4BFB600B4BDB6811
:1003D000DBB20133FA68B2FBF3F3FB60074B1B6936
:1003E00003F001030133FA68B2FBF3F3FB60064A42
:1003F000FB6813601037BD4680BD00BF004600504B
:100400001047005000366E01C05F002080B582B0FA
:1004100000AF78607B68074A934207D14FF4803081
:1004200000F0E4FA4FF4803000F070F90837BD4670
:1004300080BD00BF0040044080B485B000AFF860CC
:100440000B467A60FB72FB7A9B08DBB21846FB7A9C
:100450009B08DBB21A46FB68043253F82220FB7A71
:1004600003F00303DB001946F8238B40DB4302EA69
:100470000301FB68021D43F82210FB685A6FFB7AE8
:100480005B00194603238B40DB431A40FB685A6725
:10049000FB68384A93420AD1FB681A6EFB7A012145
:1004A00001FA03F3DB431A40FB681A6642E07B68FB
:1004B0001B78DBB25BB2002B3CDA7B685A68FB7AB4
:1004C0009A40FB685A60FB7ADB08DBB21846FB7A7D
:1004D000DB08DBB21A46FB68103253F82220FB7AA5
:1004E00003F007039B00194607238B40DB4302EA16
:1004F0000301FB6800F1100243F82210FB7ADB08CD
:10050000DBB21846FB7ADB08DBB21A46FB68103216
:1005100053F822207B681B7A1946FB7A03F0070305
:100520009B0001FA03F342EA0301FB6800F11002A9
:1005300043F82210FB7A9B08DBB21846FB7A9B0833
:10054000DBB21A46FB68043253F822207B681B7822
:100550001946FB7A03F00303DB0001FA03F342EAD6
:100560000301FB68021D43F822101437BD465DF8F5
:10057000047B7047008E024880B400AF034B1B68B9
:100580001846BD465DF8047B704700BFC05F002081
:1005900080B400AF034BD3F8C4301846BD465DF8B5
:1005A000047B70470040005080B584B000AF786095
:1005B000FFF7C2FE0B4B1B680B4AA2FB03239A0CEE
:1005C0007B6802FB03F37B600023FB6003E000BF5A
:1005D000FB680133FB60FA687B689A42F7D31037F7
:1005E000BD4680BDC05F002083DE1B4380B400AFEA
:1005F000034B5B681846BD465DF8047B704700BF3F
:100600007440005080B483B000AF7860034A7B68C8
:10061000D3600C37BD465DF8047B704774400050D2
:10062000B0B584B002AF7860002000F0BFF800F0F1
:100630007DFA7B68DB79002B0AD000F0B5FA00BFA9
:1006400000F0A0FA034683F00103DBB2002BF7D1E0
:100650007B685B7A184600F023F900BFFFF798FF2C
:100660000346002BFAD17B681B7A184600F038FA53
:100670007B681B7C184600F031F97B685B7C184670
:1006800000F054F97B689B7C184600F03BF97B68CE
:10069000DB7C184600F05EF97B689B79002B0AD062
:1006A00000F0BAFA00BF00F0DFFA034683F001035E
:1006B000DBB2002BF7D17B68DB78002B02D100F096
:1006C000F7FA14E000F0E4FA7B6899887B68DA783E
:1006D0007B685B781D467B681B781C467B689B7833
:1006E0000093084611462A46234600F0F1FA7B683B
:1006F000DB68B3F5803F03D14FF4803000F056F84B
:10070000FFF71AFE0837BD46B0BD00BF80B485B004
:1007100000AF78607B681B0FFB607B6823F0704341
:10072000BB60FA6813465B0013449B001A46044BF7
:100730001344BA681A601437BD465DF8047B7047ED
:100740001444005080B485B000AF78607B681B0F04
:10075000FB607B6823F07043BB60FA6813465B0064
:1007600013449B001A46084B13441A68BB68134095
:10077000002B14BF01230023DBB218461437BD46FB
:100780005DF8047B704700BF0C44005080B500AF9B
:10079000FFF7F2FE0246044B5B6903F0010322FA05
:1007A00003F3184680BD00BF0046005080B483B0FC
:1007B00000AF78600649064BDB6823F480327B6823
:1007C0001343CB600C37BD465DF8047B704700BF18
:1007D0000046005080B483B000AF78600649064BF5
:1007E0009B6923F480327B6813438B610C37BD46D1
:1007F0005DF8047B704700BF0046005080B483B0B2
:1008000000AF78600649064B5B6A23F440327B6890
:1008100013434B620C37BD465DF8047B704700BF45
:100820000046005080B483B000AF0346FB80FB88D5
:10083000002B08D10A4A0A4BDB6823F4807323F0AB
:100840000103D36007E0064A054BDB6843F480737D
:1008500043F00103D3600C37BD465DF8047B70475D
:100860001047005080B483B000AF0346FB7100BF57
:10087000094BD3F8C43003F00803002BF8D1074923
:10088000064BDB6823F04002FB791343CB600C3747
:10089000BD465DF8047B70470040005000430050A7
:1008A00080B483B000AF0346FB7100BF094BD3F89F
:1008B000C43003F00803002BF8D10749064BDB686E
:1008C00023F08002FB791343CB600C37BD465DF803
:1008D000047B7047004000500043005080B483B058
:1008E00000AF78600649064BDB6823F0FF027B68A7
:1008F000013B1343CB600C37BD465DF8047B70476A
:100900000046005080B483B000AF78600649064BC3
:100910001B6A23F001027B68013B13430B620C3717
:10092000BD465DF8047B70470046005080B483B03C
:1009300000AF78600649064B1B6923F001027B6813
:10094000013B13430B610C37BD465DF8047B7047D8
:100950000046005080B483B000AF78600649064B73
:100960005B6923F001027B68013B13434B610C3749
:10097000BD465DF8047B70470046005080B483B0EC
:1009800000AF78600649064B9B6923F007027B683D
:10099000013B13438B610C37BD465DF8047B704708
:1009A0000046005080B483B000AF78600649064B23
:1009B0005B6A23F0FF027B68013B13434B620C37F9
:1009C000BD465DF8047B70470046005080B483B09C
:1009D00000AF0346FB71044AFB7953600C37BD46F8
:1009E0005DF8047B704700BF0046005080B485B0BE
:1009F00000AF78607B681B0FFB607B6823F070435F
:100A0000BB60FA6813465B0013449B001A46044B14
:100A10001344BA681A601437BD465DF8047B70470A
:100A20004846005080B485B000AF78607B681B0FEB
:100A3000FB607B6823F07043BB60FA6813465B0081
:100A400013449B001A46084B13441A68BB681340B2
:100A5000002B14BF01230023DBB218461437BD4618
:100A60005DF8047B704700BF4046005080B483B0FF
:100A700000AF78603960194A184B5B6943F0010395
:100A80005361164A154B5B6943F0100353611349D8
:100A90003B68013B1A027B68013B1B0613434B6119
:100AA0000E4A0E4B5B6943F0400353610B4A0B4BFC
:100AB0005B6923F010035361084A084B5B6943F4F8
:100AC0008023536100BF054B1B6903F00403002B17
:100AD000F9D00C37BD465DF8047B704710470050D5
:100AE00080B582B000AF0346FB710F4A0E4B5B68C6
:100AF00043F480135360FB79012B0ED10A4A0A4B51
:100B00005B6823F4801353606420FFF74DFD064AB1
:100B1000054B5B6843F4002353606420FFF744FDFA
:100B20000837BD4680BD00BF1047005080B400AFFD
:100B3000124B1B6803F00103002B09D10F4B01225C
:100B40005A6000BF0D4B1B6803F00103002BF9D066
:100B50000B4B1B6803F40073002B0AD0084B4FF4B7
:100B600000729A6000BF064B1B6803F40073002BF1
:100B7000F9D1BD465DF8047B704700BF00420050CC
:100B80000044005080B400AF064B1B6803F008031C
:100B9000002B0CBF01230023DBB21846BD465DF8D5
:100BA000047B70470043005080B500AF4FF4000055
:100BB000FFF728FD174A174BDB6923F03003D36199
:100BC00000BFFFF713FD034603F40003002BF8D02A
:100BD0004FF40030FFF716FD0E4B08225A6000BF9D
:100BE000FFF704FD034603F40033002BF8D04FF465
:100BF0000020FFF707FD074A064BDB6843F00803B8
:100C0000D36000BFFFF7F2FC034603F40023002B80
:100C1000F8D080BD00430050B0B500AF0F4A0F4B75
:100C20005B6823F4803353600D4D0D4B5B6823F4F8
:100C3000702424F0300404F073FF0246094BA3FB38
:100C400002231B0D013B1B0423436B60034A034B30
:100C50005B6823F400335360B0BD00BF1047005001
:100C6000004700506BCA5F6B80B400AF074B1B6836
:100C700003F46073B3F5607F0CBF01230023DBB284
:100C80001846BD465DF8047B704700BF1047005012
:100C900080B400AF054A054B5B6823F4803323F032
:100CA00002035360BD465DF8047B70471047005057
:100CB00080B400AF054A054B5B6843F4803343F0D2
:100CC00002035360BD465DF8047B70471047005037
:100CD00080B586B000AFBA607B600346FB810B46EF
:100CE0007B73FB891846FFF79DFD7B7B012B40F052
:100CF0008480FB89002B09D104F012FF02464B4B84
:100D0000A3FB02239B0C9B057B6102E04FF0C063B9
:100D10007B617B697A6802FB03F2BB68B2FBF3F389
:100D20007B617B69424AA2FB03231B099B0D3B614C
:100D3000404A404B5B6843F0010353603D4A3D4BE2
:100D40005B6843F0100353603A493A4B9A683A4B58
:100D500013407A68013A12021A433B69013B1B04B3
:100D60001A43BB68013B1B0613438B60314A314B6E
:100D70005B6843F0400353602E4A2E4B5B6823F0C0
:100D8000100353602B4A2B4B5B6843F48023536062
:100D900000BF284B1B6803F00403002BF9D0254A41
:100DA000244B5B6823F00103536000BF214B1B6899
:100DB00003F00103002BF9D17B69204AA2FB032336
:100DC0005B099B0D3B613A6A3B699A4202D23869E2
:100DD00000F038F87B695B08194AA2FB03235B0922
:100DE0009B0D3B613A6A3B699A4202D2386900F036
:100DF00029F8386A00F026F815E00E490D4B9B687B
:100E000023F07F023B6A013B13438B60094A094B85
:100E10005B6843F00103536000BF064B1B6803F09F
:100E20000103002BF9D01837BD4680BD83DE1B437C
:100E3000ABAAAAAA10470050FF8080F08988888852
:100E4000B7600BB680B582B000AF78600749074B3A
:100E50009B6823F4FE027B68013B1B0413438B60F9
:100E60003220FFF7A1FB0837BD4680BD1047005078
:100E700080B483B000AF78607B684FF48072DA6032
:100E80000C37BD465DF8047B704700BF80B582B06B
:100E900000AF78607B68084A934203D10420FFF7D3
:100EA00035FC06E07B68054A934202D10820FFF733
:100EB0002DFC0837BD4680BD00C000400000014049
:100EC00080B582B000AF78607B68084A934203D156
:100ED0000420FFF78BFD06E07B68054A934202D1B0
:100EE0000820FFF783FD0837BD4680BD00C00040E5
:100EF0000000014080B582B000AF78601020FFF79D
:100F000065FD7868FFF7DCFF7868FFF7BFFF0837FB
:100F1000BD4680BD80B584B000AF78600B46FB70E5
:100F20007868FFF7E7FF7868FFF7A2FF7B681B6828
:100F3000FB60FB6823F44043FB60FB789B03FA688B
:100F40001343FB607B68FA681A601037BD4680BDAA
:100F500080B483B000AF786039603B681A687B6802
:100F60005A613B685B79C3F34013DBB21A057B68B7
:100F70005A603B681B79C3F30303DBB21A467B68F4
:100F80005A623B685B79C3F30303DBB21A467B68A2
:100F90001A623B685B79C3F30013DBB21A467B68C5
:100FA0009A613B681B79C3F30313DBB21A467B6873
:100FB000DA620C37BD465DF8047B704780B487B0B9
:100FC00000AF78600B46FB701346BB707B68D3F8AC
:100FD000A830FB60FB78092B2CD801A252F823F033
:100FE0000910000809100008131000081310000869
:100FF00035100008351000083510000835100008BD
:101000001D1000082910000803233B6100237B61A9
:1010100016E00C233B6102237B6111E04FF4407327
:101020003B6108237B610BE04FF440633B610A2383
:101030007B6105E04FF440533B610C237B6100BFB3
:101040003B69DB43FA681340FB60BA787B6902FABC
:1010500003F3FA681343FB607B68FA68C3F8A820BF
:101060001C37BD465DF8047B704700BF80B483B079
:1010700000AF78607B684FF48072DA600C37BD4651
:101080005DF8047B704700BF80B483B000AF786028
:101090007B6801221A610C37BD465DF8047B7047FE
:1010A00080B582B000AF78607B68044A934202D179
:1010B0008020FFF72BFB0837BD4680BD00000240B3
:1010C00080B582B000AF78607B68044A934202D159
:1010D0008020FFF78BFC0837BD4680BD0000024032
:1010E00080B582B000AF78601020FFF76FFC7868A1
:1010F000FFF7E6FF7868FFF7D3FF0837BD4680BDEE
:1011000080B584B000AF78600B46FB707868FFF75D
:10111000E7FF7868FFF7AAFF7B681B68FB60FB6846
:1011200023F44043FB60FB789B03FA681343FB60A6
:101130007B68FA681A601037BD4680BD80B582B002
:1011400000AF786039607868FFF79EFF3B681A68E7
:101150007B685A613B685B7BC3F30013DBB21A0503
:101160007B685A603B681B7BC3F30303DBB21A4600
:101170007B685A623B681B7BC3F30313DBB21A46DE
:101180007B68DA623B685B7BC3F30303DBB21A461E
:101190007B681A623B685A687B689A613B689B6807
:1011A00083F014027B689A640837BD4680BD00BF97
:1011B00080B483B000AF78600B467B807A887B6810
:1011C0005A630C37BD465DF8047B704780B483B02A
:1011D00000AF78600B46FB7013463B80FB78002B1A
:1011E00003D13A887B68DA6302E03A887B685A6404
:1011F0000C37BD465DF8047B704700BF80B487B0F4
:1012000000AF78600B46FB701346BB707B68D3F869
:10121000A830FB60FB78092B31D801A252F823F0EB
:10122000491200084912000853120008531200081E
:101230005D1200085D1200087F1200087F1200088E
:10124000671200087312000803237B6100233B61CF
:101250001BE00C237B6102233B6116E030237B61A2
:1012600004233B6111E04FF440737B6108233B6131
:101270000BE04FF440637B610A233B6105E04FF4D0
:1012800040537B610C233B6100BF7B69DB43FA6801
:101290001340FB60BA783B6902FA03F3FA68134320
:1012A000FB607B68FA68C3F8A8201C37BD465DF870
:1012B000047B704780B584B000AFF8600B467A605D
:1012C000FB72F868FFF7A2F8FB681A68FB7A9B00CC
:1012D00019460F238B40DB431A407B681B68F97A61
:1012E00089008B401A43FB681A60FA7A7B68596858
:1012F000FB68043243F822101037BD4680BD00BFA2
:1013000080B483B000AF78600B46FB701346BB70AF
:10131000FA78BB7803F00303D9B27B68083201F096
:101320000301090153F8220020F03000014343F883
:1013300022100C37BD465DF8047B704780B483B043
:1013400000AF78600B46FB701346BB707B685A6F2A
:10135000FB785B00194603238B40DB431A407B6814
:101360005A677B685A6FBB78F97849008B401A43FB
:101370007B685A670C37BD465DF8047B704700BF39
:1013800080B582B000AF78603960786800F084F88A
:101390003B685B79002B12D13B681B79002B07D08F
:1013A0003B681B6878681946022200F01FF906E0C6
:1013B0003B681B6878681946022200F0A7F87B6832
:1013C0000E4A5A637B684FF4A2629A633B685B796A
:1013D000002B07D13B689B7943F00B03DBB21A4625
:1013E0007B68DA637B684FF0FF32DA643B681B8905
:1013F0001A467B681A640837BD4680BD02013F0764
:1014000080B483B000AF786039607B68DB6B23F415
:101410007F027B68DA637B68DA6B3B681A437B6820
:10142000DA630C37BD465DF8047B704780B485B045
:1014300000AF78607B68D3F80C3103F0E063002BD9
:1014400003D17B685B6DFB8103E07B68D3F81C31C3
:10145000FB81FB8918461437BD465DF8047B704755
:1014600080B483B000AF786039607B681A6C3B68E9
:1014700003F4FE33DB431A407B681A647B68DA6B43
:101480003B685B039BB2DB431A407B68DA630C3733
:10149000BD465DF8047B704780B582B000AF7860D0
:1014A0007B68144A934203D07B68134A934203D16A
:1014B000124800F0E7F90AE07B68114A934203D032
:1014C0007B68104A934202D10F4800F0DBF97B6839
:1014D0000322DA6000BF7B68DB6803F00103002BA6
:1014E000F9D07B681B6C23F00F027B681A64083705
:1014F000BD4680BD000003400002034008000340D9
:1015000000000248000202480800024880B58EB080
:1015100000AFF860B9607A60BB68632B58D97B680C
:10152000002B55D0FFF732F902462E4BA3FB0223C6
:101530005B093B62BB682B4AA2FB03235B09BB60D0
:101540000123FB620123BB6240F2FF337B6240F266
:10155000FF333B6322E03B6A3A6B02FB03F2BB685A
:10156000796801FB03F3B2FBF3F3FB61FB699B0AB0
:10157000BB61FB69C3F309037B61BB69B3F5806F92
:1015800009D27A697B6A9A4205D27B697B62BB6920
:10159000BB623B6BFB623B6B013B3B633B6B002BDA
:1015A000D9D1FB6A43F40042FB681A61FB685A69AF
:1015B0000D4B13407A68013A92021A43BB6A013B11
:1015C0001B041A43FB685A61002387F8373002E096
:1015D000012387F8373097F8373018463837BD463B
:1015E00080BD00BF1F85EB51EF8000FC80B58CB043
:1015F00000AFF860B9607A60FFF7C8F803463B6255
:10160000BB687A6802FB03F3FB610123FB623A6A61
:10161000FB699A425FDD3A6AFB6992FBF3F3BB62B6
:1016200010E0FB6A0133FB62BB687A6802FB03F3DC
:101630001A46FB6A03FB02F3FB613A6AFB6992FB01
:10164000F3F3BB62BB6A40F2FE329342E9D83A6AD6
:101650007B68B96A01FB03F3F96A01FB03F3B2FB90
:10166000F3F3BB613A6ABB6A0133796801FB03F3A8
:10167000F96A01FB03F3B2FBF3F37B61BA687B69A0
:10168000D31A83EAE372A2EBE372B968BB69CB1A9F
:10169000002BB8BF5B429A4202DABB6A0133BB62DD
:1016A000BB6AC3F58063BB62BB6A43F48042FB68DC
:1016B0001A61FB685A690C4B13407A68013A92022E
:1016C0001A43FB6A013B1B041A43FB685A6100235F
:1016D00087F8273002E0012387F8273097F8273072
:1016E00018463037BD4680BDEF8000FC80B485B021
:1016F00000AFF860B9603B601346FB71FB68D3F83C
:10170000083123F0E062FB68C3F80821FB68D3F8D6
:101710000821094B13403A681102BA681143FA795B
:1017200012060A431A43FB68C3F808211437BD4662
:101730005DF8047B704700BFC0C0FFF880B485B07F
:1017400000AFF860B9603B601346FB71FB68D3F8EB
:101750000C3123F0E062FB68C3F80C21FB68D3F87E
:101760000C210A4B13403A681102BA681143FA7906
:1017700012060A43134343F08052FB68C3F80C215E
:101780001437BD465DF8047B704700BFC0C0FFEF53
:1017900080B485B000AFF8600B467A60FB72FB68DE
:1017A000D3F80C3123F0E062FB68C3F80C21FB682E
:1017B000D3F80C3123F47C527B681B021A43FB7A6A
:1017C0001B061A43FB68C3F80C211437BD465DF8AD
:1017D000047B704780B485B000AFF8600B467A6038
:1017E000FB72FB689A69FB7A072101FA03F3DB437A
:1017F0001A40FB7A796801FA03F31A43FB689A618D
:101800001437BD465DF8047B704700BF80B485B0D7
:1018100000AFF8600B467A60FB72FB68D3F80821D2
:10182000FB7A072101FA03F3DB431A40FB7A79685C
:1018300001FA03F31A43FB68C3F808211437BD46C5
:101840005DF8047B704700BF80B485B000AFF860DE
:101850000B467A60FB72FB68D3F80C21FB7A0721F8
:1018600001FA03F3DB431A40FB7A796801FA03F3C8
:101870001A43FB68C3F80C211437BD465DF8047B9E
:10188000704700BF80B582B000AF78607B681B4AAC
:10189000934218D14FF40060FFF7A8F800BF4FF44F
:1018A0000060FFF7BFF80346002BF8D14FF400604B
:1018B000FEF72CFF00BF4FF40060FEF743FF034626
:1018C000002BF8D117E07B680D4A934213D10D48E5
:1018D000FFF78CF800BF0B48FFF7A4F80346002B76
:1018E000F9D10848FEF712FF00BF0648FEF72AFFAD
:1018F0000346002BF9D10837BD4680BD08000340E0
:10190000080002488000001080B584B000AF786005
:10191000144B1B68002B02D1124B134A1A60114B57
:101920001B68FB607B68033323F003037B600D4B74
:101930001A687B6813440D4A934207D2094B1A6810
:101940007B681344074A1360FB6806E005F0F8F86B
:1019500002460C2313604FF0FF3318461037BD4684
:1019600080BD00BFC0C9FF1F00000020C05F002075
:1019700080B400AFBD465DF8047B704780B485B08D
:1019800000AFF8600B467A607B817989FB687A68E2
:10199000203243F822101437BD465DF8047B7047AF
:1019A00080B483B000AF786039607B681A6C3B68A4
:1019B0001A437B681A640C37BD465DF8047B704798
:1019C00080B483B000AF786039607B681A6C3B6884
:1019D000DB431A407B681A640C37BD465DF8047B14
:1019E000704700BF80B483B000AF78607B689B6BAA
:1019F000DBB223F07F03DBB218460C37BD465DF83F
:101A0000047B704780B483B000AF78607B681B6D47
:101A100003F4C04318460C37BD465DF8047B70479D
:101A200080B483B000AF786039603B684FF4803297
:101A30009A407B689A660C37BD465DF8047B704718
:101A400080B483B000AF786039607B68D3F8082138
:101A50003B681A437B68C3F808210C37BD465DF824
:101A6000047B704780B483B000AF786039607B68D6
:101A7000D3F808213B68DB431A407B68C3F8082190
:101A80000C37BD465DF8047B704700BF80B485B05D
:101A900000AFF8600B467A607B817989FB687A68D1
:101AA000603243F822101437BD465DF8047B70475E
:101AB00080B483B000AF78607B684FF40042C3F815
:101AC00018210C37BD465DF8047B704780B483B0A5
:101AD00000AF78607B68D3F8143103F48053002B97
:101AE00014BF01230023DBB218460C37BD465DF856
:101AF000047B704780B483B000AF78607B68D3F814
:101B0000143103F40063002B14BF01230023DBB264
:101B100018460C37BD465DF8047B704780B483B02F
:101B200000AF786039607B68D3F80C213B681A43BA
:101B30007B68C3F80C210C37BD465DF8047B704709
:101B400080B483B000AF786039607B68D3F80C2133
:101B50003B68DB431A407B68C3F80C210C37BD4659
:101B60005DF8047B704700BF80B483B000AF78603D
:101B70007B684FF48042C3F818210C37BD465DF8EE
:101B8000047B704780B483B000AF78607B68D3F883
:101B9000143103F00803002B14BF01230023DBB230
:101BA00018460C37BD465DF8047B704780B483B09F
:101BB00000AF78600B46FB707B681B6C23F0C002A3
:101BC000FB789B01DBB21A437B681A640C37BD4675
:101BD0005DF8047B704700BF80B584B000AF7860CB
:101BE0007B685B685B6898470346FB73FB7B184622
:101BF0001037BD4680BD00BF80B586B000AFF8602D
:101C0000B9607A600123FB75FB685B6893F88430E8
:101C1000002B06D1F868B9687A6800F007F8034627
:101C2000FB75FB7D18461837BD4680BD80B588B072
:101C300000AFF860B9607A600123BB610423FB77D1
:101C4000FB689B687B61FB685B6893F88430002BC2
:101C50005CD1BB68002B57D07B68002B54D002238B
:101C6000FB777B6993F82030DBB283F00103DBB2B2
:101C7000002B48D0FB689B681B68082B01D9022306
:101C8000BB617B69BA689A61BB69013B1A467B6894
:101C900003FA02F27B695A607B6900229A607B69D1
:101CA000012283F82020FB685B6893F87C30002BCE
:101CB0000CD0FB681B681846FFF7FAFEFB681B6830
:101CC00018464FF08041FFF7BBFE06E0FB681B683B
:101CD00018464FF40051FFF763FEFB681A687B69F2
:101CE0001B7FDBB210461946FFF760FF0023FB772E
:101CF000FB681A68FB685B6893F8893010461946E0
:101D0000FFF78EFE02E001E00323FB77FB7F18461E
:101D10002037BD4680BD00BF80B586B000AFF860FB
:101D2000B9607A603B600223FB75FB689B683B618E
:101D30003B691B7FDBB2002B3FD1BB68002B38D047
:101D40007B68002B35D03B68002B32D03B69DB7FB2
:101D5000DBB283F00103DBB2002B29D03B6993F89F
:101D60002030DBB283F00103DBB2002B20D03B69D3
:101D70000122DA773B697A685A613B69BA689A61ED
:101D80003B693A685A603B69002283F821203B692D
:101D9000002283F82220FB685B6893F88530002BD3
:101DA00006D1F868396800F0F3F80346FB7503E0E4
:101DB00002E00323FB7502E001E00123FB75FB7DDC
:101DC00018461837BD4680BD90B587B000AF786023
:101DD00001233B617B689B68FB607B689B681B6899
:101DE000082B01D902233B61FB689A68FB685B689A
:101DF0009A4280F08B800023FB827B685B6893F8BB
:101E00007C30002B4BD03EE0FB689A68FB685B6837
:101E10009A4236D2FB6893F82130DBB2002B0BD00C
:101E20007B681A68FB681B7FDBB210464FF6FF71B8
:101E30001A46FFF72BFE1DE03B69022B07D1FB681A
:101E40009A69FB689B6813441B88FB8206E0FB6869
:101E50009A69FB689B6813441B78FB827B681A684D
:101E6000FB681B7FDBB21C46FB8A104619462246E4
:101E7000FFF70CFEFB689A683B691A44FB689A609E
:101E800001E000BF80E07B681B681846FFF71EFE7C
:101E9000034683F00103DBB2002BB5D174E0FB688D
:101EA00093F82130DBB2002B0BD07B681A68FB68FB
:101EB0001B7FDBB210464FF6FF711A46FFF75EFD3F
:101EC0001DE03B69022B07D1FB689A69FB689B68A0
:101ED00013441B88FB8206E0FB689A69FB689B68D9
:101EE00013441B78FB827B681A68FB681B7FDBB29C
:101EF0001C46FB8A104619462246FFF73FFDFB6849
:101F00009A683B691A44FB689A603DE07B681B68ED
:101F10001846FFF7EFFD0346002B35D07B685B6862
:101F200093F87C30002B07D07B681B6818464FF075
:101F30008041FFF797FD06E07B681B6818464FF469
:101F40000051FFF73DFD00BF7B681B681846FFF797
:101F500049FD0346802BF7D0FB68002283F8202040
:101F6000FB6800229A617B685B681B6F002B0BD0BB
:101F7000FB68DB7FDBB283F00103DBB2002B03D015
:101F80007B685B681B6F98471C37BD4690BD00BFE0
:101F900080B586B000AF7860396001237B617B68D3
:101FA0009B683B613B6900221A617B689B681B68E8
:101FB000082B01D902237B617B69013B1A463B68F0
:101FC00003FA02F23B69DA607B685B6893F87D3064
:101FD000002B17D07B681B681846FFF7C5FD7B6890
:101FE0001B68184600F096F93B69DB68786819466B
:101FF00000F058F97B681B6818464FF0C041FFF7A6
:102000008DFD0BE07B681B68184600F083F97B6848
:102010001B6818464FF44041FFF7C2FC3B699A69C0
:102020003B695B68786811461A46FFF7E5FD034691
:10203000FB73FB7B18461837BD4680BD80B586B064
:1020400000AF786001237B617B689B683B61002364
:10205000FB817B689B681B68082B01D902237B618D
:102060007B685B6893F87D30002B1DD078687969B8
:1020700000F0B6F83B69DA683B691B69D21A7B68E5
:102080005B6893F87D30013B012101FA03F39A422A
:1020900000F2A2803B69DA683B691B69D31A786851
:1020A000194600F0FFF897E07B681B681846FFF7B9
:1020B000A9FC034603F40053002B28D03B691A699E
:1020C0003B69DB689A4222D27B681B681846FFF79F
:1020D000ADF90346FB813B695A693B691B691344AF
:1020E000FA89D2B21A707B69022B0AD13B695A690C
:1020F0003B691B6901331344FA89120A92B2D2B2C6
:102100001A703B691A697B691A443B691A617B68DA
:102110001B681846FFF776FC034603F48043002B48
:1021200028D03B691A693B69DB689A4222D27B68F6
:102130001B681846FFF77AF90346FB813B695A6929
:102140003B691B691344FA89D2B21A707B69022B6E
:102150000AD13B695A693B691B6901331344FA8907
:10216000120A92B2D2B21A703B691A697B691A4498
:102170003B691A613B691A693B69DB689A422BD15A
:102180007B685B6893F87D30002B07D07B681B6809
:1021900018464FF0C041FFF7D3FC06E07B681B6890
:1021A00018464FF44041FFF75BF93B690022DA77AC
:1021B0003B69002283F821203B69012283F8222019
:1021C0003B6900225A617B685B685B6F002B03D020
:1021D0007B685B685B6F98471837BD4680BD00BF62
:1021E00080B584B000AF786039607B689B68FB6025
:1021F00000237B8147E0FB681A69FB68DB689A4231
:1022000022D27B681B681846FFF710F903467B81D2
:10221000FB685A69FB681B6913447A89D2B21A7049
:102220003B68022B0AD1FB685A69FB681B690133C2
:1022300013447A89120A92B2D2B21A70FB681A69F0
:102240003B681A44FB681A61FB681A69FB68DB6823
:102250009A4218D1FB680022DA77FB68002283F8E3
:1022600021207B681B6818464FF0C041FFF768FCCF
:102270007B685B685B6F002B04D07B685B685B6F7F
:1022800098470BE00AE07B681B681846FFF77AFC6A
:10229000034683F00103DBB2002BACD11037BD46FF
:1022A00080BD00BF80B584B000AF786039607B68C6
:1022B0005B6893F87D30002B28D03B68002B25D03D
:1022C0007B685B6893F87D30013B012202FA03F3DF
:1022D000BB607B689B681B68082B02D93B685B0866
:1022E0003B603A68BB689A4203D83B68013BFB609D
:1022F00001E0BB68FB607B681A687B685B6893F8E9
:102300007D3010461946FA68FFF742FA1037BD468D
:1023100080BD00BF80B582B000AF78607868FFF7FD
:1023200085F87868FFF782F80837BD4680BD00BFA2
:1023300080B400AF044BDB6803F4E0631B0A18466B
:10234000BD465DF8047B704700ED00E080B483B0CB
:1023500000AF0346FB7197F90730002B0BDB0849F0
:1023600097F907305B09FA7902F01F02012000FAA1
:1023700002F241F823200C37BD465DF8047B70471C
:1023800000E100E080B483B000AF03463960FB7128
:1023900097F90730002B0ADB0D4997F907303A68A7
:1023A000D2B29200D2B20B4483F800230AE009496A
:1023B000FB7903F00F03043B3A68D2B29200D2B229
:1023C0000B441A760C37BD465DF8047B704700BF9E
:1023D00000E100E000ED00E080B489B000AFF860FB
:1023E000B9607A60FB6803F00703FB61FB69C3F126
:1023F0000703062B28BF0623BB61FB690633062BA8
:1024000002D9FB69013B00E000237B61BB6901222B
:1024100002FA03F35A1EBB681A407B699A407B6933
:10242000012101FA03F3591E7B680B401343184640
:102430002437BD465DF8047B704700BF80B483B08D
:1024400000AF78600B46FB701346BB70F878FB78E2
:102450007A6806339B0013445B6823F00702BB785D
:102460001A437968831D9B000B445A600C37BD46A4
:102470005DF8047B704700BF80B483B000AF786024
:102480000B46FB707B685B6B23F07062FB78013B53
:102490001B061A437B685A630C37BD465DF8047B04
:1024A000704700BF80B483B000AF78600B46FB700C
:1024B0007B685B6B23F47C12FB78013B1B041A43A3
:1024C0007B685A630C37BD465DF8047B704700BFDC
:1024D00080B485B000AFF860B9607A60FB685B6972
:1024E00023F05042BB681A437B681A43FB685A6169
:1024F0001437BD465DF8047B704700BF80B483B0DD
:1025000000AF78600B46FB707B681B6C23F00F02FA
:10251000FB781A437B681A640C37BD465DF8047B70
:10252000704700BF80B582B000AF78607868012145
:10253000FFF7E4FF0837BD4680BD00BF80B483B01D
:1025400000AF786039607B685B6923F4FE423B68CA
:10255000013B9B02134343F480727B685A610C3742
:10256000BD465DF8047B704780B584B000AFF8606D
:10257000B9607A60F868B9687A68FFF7A9FF103720
:10258000BD4680BD80B582B000AF78600B46FB7061
:10259000FB7878681946FFF76FFF0837BD4680BDA6
:1025A00080B582B000AF78600B46FB70FB7878682E
:1025B0001946FFF777FF0837BD4680BD80B582B06A
:1025C00000AF78600B46FB701346BB70F878FB7861
:1025D0007A6806339B0013445B6823F0500343F092
:1025E00010027968831D9B000B445A60FA78BB780F
:1025F000786811461A46FFF721FF0837BD4680BDAF
:1026000080B582B000AF0023FB713D483D49FEF725
:10261000B7FE3B480821FFF7B5FF39481021FFF707
:10262000BFFF374800210022FFF79EFF34480221F8
:10263000FFF784FF34480021344AFDF7FDFE30489F
:1026400000210322FFF7BAFF2D48FFF76BFF304848
:102650000921304AFDF7F0FE2D4808212E4AFDF7EA
:10266000EBFE294802212D4AFDF7E6FE24484FF4EF
:102670000031FEF7C5FE224810210222FFF7AAF81A
:102680001F48102104220123FFF730F81C481021B5
:102690000122FFF7BBF81A48002104220023FFF7AC
:1026A0004DF8174810210022FFF7CEF814481321E7
:1026B0000022FFF7C9F8FFF73BFE034618463F210B
:1026C0000022FFF789FE03465B201946FFF75AFEFA
:1026D0005B20FFF73BFEFFF72BFE034618463E212B
:1026E0000022FFF779FE03465A201946FFF74AFEFB
:1026F0005A20FFF72BFEFB7918460837BD4680BDF0
:102700000002024814C8FF1F00800248C4C9FF1F0E
:102710000081024800C8FF1F4C6D0008686D00086A
:1027200080B500AF0148FFF74FFB80BD44C8FF1FD5
:1027300080B500AF0148FFF781FC80BD44C8FF1F92
:1027400080B483B000AF78600B46FB70FB78012249
:102750009A407B68DA600C37BD465DF8047B7047B1
:1027600080B483B000AF78607B680122DA600C37F8
:10277000BD465DF8047B704780B483B000AF7860DD
:102780000B467B807A887B685A630C37BD465DF8C0
:10279000047B704780B483B000AF78600B467B80C9
:1027A0007A887B68DA630C37BD465DF8047B704736
:1027B00080B483B000AF786039607B683A681A6192
:1027C0000C37BD465DF8047B704700BF80B483B012
:1027D00000AF78600B46FB707B68D3F8A420FB78D1
:1027E000012101FA03F31A437B68C3F8A4200C37D4
:1027F000BD465DF8047B704780B483B000AF78605D
:102800000B46FB70FB7801229A407B68DA600C373C
:10281000BD465DF8047B704780B483B000AF78603C
:102820007B680122DA600C37BD465DF8047B704797
:1028300080B483B000AF786039607B683A681A6111
:102840000C37BD465DF8047B704700BF80B483B091
:1028500000AF78600B46FB707B68D3F8A420FB7850
:10286000012101FA03F31A437B68C3F8A4200C3753
:10287000BD465DF8047B704780B584B000AF7860DA
:102880000123FB737B6893F82930022B4DD17B68C1
:102890001B68184600F066FB0346FB73FB7B002BAE
:1028A0003FD17B689A687B68DB6810461946FEF763
:1028B0004FFB7B689A687B68DB699BB210461946C0
:1028C000FFF75AFF7B689A687B689B699BB210464A
:1028D0001946FFF75FFF7B685A687B685B6A1046A2
:1028E0001946FFF765FF786800F024F87B681969DE
:1028F0007B6893F82C207B685B69084611461A4672
:10290000FDF79AFD7B68002283F829207B6893F805
:102910002F30002B02D0786800F0BAF90023FB7347
:1029200003E07B68022283F82920FB7B18461037DE
:10293000BD4680BD80B582B000AF78607B6893F8FB
:102940003030002B0FD07B689B6818460021FFF7C2
:102950003DFF7B689A687B6893F82A301046002117
:102960001A46FEF72BFB7B6893F83130002B0FD013
:102970007B689B6818460221FFF728FF7B689A68EE
:102980007B6893F82B30104602211A46FEF716FB9F
:102990000837BD4680BD00BF80B582B000AF78600B
:1029A0007B6893F82930002B04D07B6893F829309A
:1029B000042B11D17B685A687B6893F82E3010463F
:1029C0001946FFF7BDFE7B689B681846FFF7C8FEF7
:1029D0007B68032283F829200837BD4680BD00BFED
:1029E00080B586B000AF786039600123FB757B68E5
:1029F00093F82930022B2CD03B6842F2107293429C
:102A000027D87B68DB6901333B613B68C3F51C5306
:102A100010333A6902FB03F3104AA2FB03235B0B5A
:102A2000FB607B68FA689A617B683A681A627B6827
:102A30009A68FB689BB210461946FFF7ABFE7B68AD
:102A40005A687B685B6A10461946FFF7B1FE00239F
:102A5000FB75FB7D18461837BD4680BD5917B7D1A9
:102A600080B584B000AF78600123FB737B6893F876
:102A70002930022B4ED17B681B68184600F044FABF
:102A80000346FB73FB7B002B40D17B689A687B6815
:102A9000DB6810461946FEF751FB7B689A687B6835
:102AA000DB699BB210461946FEF782FB7B689A6889
:102AB0007B689B699BB2104600211A46FEF786FB95
:102AC0007B685A687B685B6A10461946FFF7B0FE60
:102AD000786800F025F87B6819697B6893F82C20EA
:102AE0007B685B69084611461A46FDF7A5FC7B68C2
:102AF000002283F829207B6893F82F30002B02D026
:102B0000786800F0C5F80023FB7303E07B680222BD
:102B100083F82920FB7B18461037BD4680BD00BFD7
:102B200080B582B000AF78607B6893F83030002BBE
:102B30000FD07B689B6818460021FFF787FE7B68F3
:102B40009A687B6893F82A30104600211A46FEF7EF
:102B500055FB7B6893F83130002B0FD07B689B6866
:102B600018460221FFF772FE7B689A687B6893F82B
:102B70002B30104602211A46FEF740FB0837BD46AF
:102B800080BD00BF80B582B000AF78607B6893F8ED
:102B90002930002B04D07B6893F82930042B11D105
:102BA0007B685A687B6893F82E3010461946FFF709
:102BB00023FE7B689B681846FFF72EFE7B68032286
:102BC00083F829200837BD4680BD00BF80B586B098
:102BD00000AF786039600123FB757B6893F829307A
:102BE000022B2DD03B6842F21072934228D87B68AA
:102BF000DB6901333B613B68C3F51C5310333A6911
:102C000002FB03F3114AA2FB03235B0BFB607B680F
:102C1000FA689A617B683A681A627B689A68FB680E
:102C20009BB2104600211A46FEF7D0FA7B685A681C
:102C30007B685B6A10461946FFF7FAFD0023FB75B7
:102C4000FB7D18461837BD4680BD00BF5917B7D168
:102C500080B584B000AF78600123FB737B6893F884
:102C60002830002B04D17868FFF706FE0346FB737B
:102C70007B6893F82830012B04D17868FFF7F0FEC9
:102C80000346FB73FB7B18461037BD4680BD00BF73
:102C900080B582B000AF78607B6893F82830002B55
:102CA00002D17868FFF778FE7B6893F82830012B13
:102CB00002D17868FFF766FF0837BD4680BD00BFC8
:102CC00080B584B000AF786039600123FB737B6806
:102CD00093F82830002B05D178683968FFF780FE1B
:102CE0000346FB737B6893F82830012B05D1786885
:102CF0003968FFF76BFF0346FB73FB7B1846103701
:102D0000BD4680BD80B400AF044BDB6803F4E063D4
:102D10001B0A1846BD465DF8047B704700ED00E0D5
:102D200080B483B000AF0346FB7197F90730002BE6
:102D30000BDB084997F907305B09FA7902F01F02AB
:102D4000012000FA02F241F823200C37BD465DF85D
:102D5000047B704700E100E080B483B000AF03461D
:102D6000FB7197F90730002B0CDB094997F9073005
:102D70005B09FA7902F01F02012000FA02F26033C7
:102D800041F823200C37BD465DF8047B704700BF37
:102D900000E100E080B483B000AF03463960FB710E
:102DA00097F90730002B0ADB0D4997F907303A688D
:102DB000D2B29200D2B20B4483F800230AE0094950
:102DC000FB7903F00F03043B3A68D2B29200D2B20F
:102DD0000B441A760C37BD465DF8047B704700BF84
:102DE00000E100E000ED00E080B489B000AFF860E1
:102DF000B9607A60FB6803F00703FB61FB69C3F10C
:102E00000703062B28BF0623BB61FB690633062B8D
:102E100002D9FB69013B00E000237B61BB69012211
:102E200002FA03F35A1EBB681A407B699A407B6919
:102E3000012101FA03F3591E7B680B401343184626
:102E40002437BD465DF8047B704700BF90B583B062
:102E500000AF78607B6859687B6893F821207B68B5
:102E60000833084611461A46FDF7E6FA7B681968EA
:102E70007B68DA7F7B681433084611461A46FEF7F2
:102E800019FA7B681A687B6893F820301046194657
:102E90000122FEF735FA7B681C7FFFF733FF0146FE
:102EA0007B685B7F1A467B689B7F084611461A4603
:102EB000FFF79AFF024663B218461146FFF76AFF12
:102EC0007B6893F82230002B0BD07B681B7F5BB2B2
:102ED0001846FFF741FF7B681B7F5BB21846FFF780
:102EE0001FFF002318460C37BD4690BD80B483B049
:102EF00000AF78607B684FF48072DA600C37BD46B3
:102F00005DF8047B704700BF80B582B000AF786089
:102F10007B685B7B83F00103DBB2002B0FD07B6807
:102F20009A687B681B7B10461946FEF7E9F87B68B8
:102F30009B681846FFF7DAFF7B6801225A7300236B
:102F400018460837BD4680BD80B483B000AF7860B6
:102F50007B684FF48072DA600C37BD465DF8047B05
:102F6000704700BF80B582B000AF78607B685B7B44
:102F700083F00103DBB2002B0FD07B689A687B687B
:102F80001B7B10461946FDF7C5FF7B689B681846FA
:102F9000FFF7DAFF7B6801225A73002318460837CF
:102FA000BD4680BD80B485B000AFF860B9607A607E
:102FB000FB68043BFB60FB684FF080721A60FB68A3
:102FC000043BFB60BB6823F00102FB681A60FB68EE
:102FD000043BFB600C4AFB681A60FB68143BFB6017
:102FE0007A68FB681A60FB68043BFB60FB686FF063
:102FF00002021A60FB68203BFB60FB68184614372E
:10300000BD465DF8047B70470D30000880B485B084
:1030100000AF00237B60104B1B68B3F1FF3F09D06A
:103020004FF0FC0383F31188BFF36F8FBFF34F8F13
:10303000FB60FEE74FF0FC0383F31188BFF36F8F53
:10304000BFF34F8FBB6000BF7B68002BFCD01437F1
:10305000BD465DF8047B70471CC9FF1F00000000DF
:10306000074B19680868B0E8F04F80F30988BFF390
:103070006F8F4FF0000080F311887047AFF300802E
:10308000E0C9FF1FAFF30080AFF30080AFF3008013
:1030900008480068006880F308884FF0000080F35B
:1030A000148862B661B6BFF34F8FBFF36F8F00DF36
:1030B00000BF000008ED00E080B586B000AF444BD3
:1030C0001B68444A934209D14FF0FC0383F31188F3
:1030D000BFF36F8FBFF34F8F3B61FEE73C4B1B6825
:1030E0003D4A934209D14FF0FC0383F31188BFF3AB
:1030F0006F8FBFF34F8FFB60FEE7384B7B617B69BF
:103100001B78DBB27B607B69FF221A707B691B78BE
:10311000DBB2FB70FB78DBB223F00303DAB2304B97
:103120001A70304B07221A6009E02E4B1B68013BD6
:103130002C4A1360FB78DBB25B00DBB2FB70FB78E0
:10314000DBB2DBB25BB2002BEFDB264B1B68C3F1BB
:103150000703062B09D04FF0FC0383F31188BFF35C
:103160006F8FBFF34F8FBB60FEE71E4B1B681B02C8
:103170001C4A13601B4B1B6803F4E063194A13607D
:103180007B68DAB27B691A70174A174B1B6843F4E5
:103190007C031360144A144B1B6843F07C43136098
:1031A00000F0D6F8114B00221A6000F0F3F8104A34
:1031B0000F4B1B6843F040431360FFF769FF01F0BA
:1031C0004FFCFFF723FF002318461837BD4680BD8C
:1031D00000ED00E071C20F4170C20F4100E400E059
:1031E000D8C9FF1FDCC9FF1F20ED00E01CC9FF1F6D
:1031F00034EF00E080B483B000AF4FF0FC0383F302
:103200001188BFF36F8FBFF34F8F7B600E4B1B682E
:1032100001330D4A13600C4B1B68012B0ED10B4B75
:103220001B68DBB2002B09D04FF0FC0383F311883D
:10323000BFF36F8FBFF34F8F3B60FEE70C37BD4688
:103240005DF8047B704700BF1CC9FF1F04ED00E060
:1032500080B483B000AF104B1B68002B09D14FF036
:10326000FC0383F31188BFF36F8FBFF34F8F7B6035
:10327000FEE7094B1B68013B074A1360064B1B68BE
:10328000002B04D100233B603B6883F311880C378B
:10329000BD465DF8047B70471CC9FF1F000000009D
:1032A000EFF30980BFF36F8F154B1A681EF0100FF4
:1032B00008BF20ED108A20E9F04F10602DE90900C9
:1032C0004FF0FC0080F31188BFF34F8FBFF36F8F77
:1032D00001F0C6FB4FF0000080F3118809BC1968AB
:1032E0000868B0E8F04F1EF0100F08BFB0EC108A6D
:1032F00080F30988BFF36F8F704700BFAFF3008082
:10330000E0C9FF1FAFF30080AFF30080AFF3008090
:1033100080B582B000AF4FF0FC0383F31188BFF398
:103320006F8FBFF34F8F7B6001F0E0FA0346002BF5
:1033300003D0064B4FF080521A6000233B603B687D
:1033400083F311880837BD4680BD00BF04ED00E05F
:1033500080B400AF0A4B00221A600A4B00221A60A8
:10336000094A0A4B1B680A49A1FB03139B09013B4D
:103370001360034B07221A60BD465DF8047B70475B
:1033800010E000E018E000E014E000E0C05F002082
:10339000D34D6210DFF80C00016841F47001016048
:1033A0007047000088ED00E080B485B000AFEFF317
:1033B0000583FB60FB680F2B13D9154AFB68134488
:1033C0001B78FB72134B1B78FA7A9A4209D24FF0A2
:1033D000FC0383F31188BFF36F8FBFF34F8F7B60C4
:1033E000FEE70D4B1B6803F4E0620C4B1B689A422E
:1033F00009D94FF0FC0383F31188BFF36F8FBFF33C
:103400004F8F3B60FEE71437BD465DF8047B704785
:10341000F0E300E0D8C9FF1F0CED00E0DCC9FF1F9E
:1034200080B584B000AF786001F0A4F9786803F04B
:10343000B3FB0346FB6001F0ABF9FB68184610379D
:10344000BD4680BD80B582B000AF78607B68002B40
:1034500006D001F08FF9786803F0A6FB01F098F927
:103460000837BD4680BD00BF80B483B000AF786030
:103470007B6803F108027B685A607B684FF0FF327B
:103480009A607B6803F108027B68DA607B6803F16D
:1034900008027B681A617B6800221A600C37BD46FF
:1034A0005DF8047B704700BF80B483B000AF7860E4
:1034B0007B6800221A610C37BD465DF8047B7047BB
:1034C00080B485B000AF786039607B685B68FB6072
:1034D0003B68FA685A60FB689A683B689A60FB68C8
:1034E0009B683A685A60FB683A689A603B687A68F9
:1034F0001A617B681B685A1C7B681A601437BD46CA
:103500005DF8047B704700BF80B485B000AF786081
:1035100039603B681B68BB60BB68B3F1FF3F03D1F8
:103520007B681B69FB600CE07B680833FB6002E092
:10353000FB685B68FB60FB685B681A68BB689A4263
:10354000F6D9FB685A683B685A603B685B683A6822
:103550009A603B68FA689A60FB683A685A603B6810
:103560007A681A617B681B685A1C7B681A6014377A
:10357000BD465DF8047B704780B485B000AF7860CD
:103580007B681B69FB607B685B687A6892689A60FD
:103590007B689B687A6852685A60FB685A687B68E7
:1035A0009A4203D17B689A68FB685A607B68002264
:1035B0001A61FB681B685A1EFB681A60FB681B686F
:1035C00018461437BD465DF8047B704780B584B05B
:1035D00000AF786039607B68FB60FB68002B09D125
:1035E0004FF0FC0383F31188BFF36F8FBFF34F8F4E
:1035F000BB60FEE7FFF7FEFDFB681A68FB68DB6B4C
:10360000F968096C01FB03F31A44FB689A60FB68D4
:1036100000229A63FB681A68FB685A60FB681A68A4
:10362000FB68DB6B013BF968096C01FB03F31A448F
:10363000FB68DA60FB68FF2283F84420FB68FF2206
:1036400083F845203B68002B14D1FB681B69002BD5
:103650001AD0FB681033184601F0A8FA0346002B75
:1036600012D00D4B4FF080521A60BFF34F8FBFF353
:103670006F8F09E0FB6810331846FFF7F5FEFB6813
:1036800024331846FFF7F0FEFFF7E2FD012318464A
:103690001037BD4680BD00BF04ED00E090B58BB093
:1036A00002AFF860B9601346FB71FB68002B09D1CB
:1036B0004FF0FC0383F31188BFF36F8FBFF34F8F7D
:1036C0003B61FEE7BB68002B02D10023FB6104E0F5
:1036D000FB68BA6802FB03F3FB61FB6954331846CD
:1036E000FFF79EFEB861BB69002B0DD0BB697B6103
:1036F0007B6954337B61FC79BB690093F868B968D6
:103700007A69234600F006F8BB6918462437BD469F
:1037100090BD00BF80B584B000AFF860B9607A603A
:10372000FB70BB68002B03D1BB69BA691A6002E069
:10373000BB697A681A60BB69FA68DA63BB69BA6800
:103740001A64B8690121FFF741FFBB69FA7883F871
:103750005020BB6900229A641037BD4680BD00BF6F
:1037600080B58EB000AFF860B9607A603B6000232E
:103770007B63FB683B633B6B002B09D14FF0FC0381
:1037800083F31188BFF36F8FBFF34F8F7B62FEE728
:10379000BB68002B03D13B6B1B6C002B01D10123B9
:1037A00000E00023002B09D14FF0FC0383F31188C4
:1037B000BFF36F8FBFF34F8F3B62FEE73B68022B77
:1037C00003D13B6BDB6B012B01D1012300E0002314
:1037D000002B09D14FF0FC0383F31188BFF36F8FE7
:1037E000BFF34F8FFB61FEE701F088FB0346002B20
:1037F00002D17B68002B01D1012300E00023002BC4
:1038000009D14FF0FC0383F31188BFF36F8FBFF32F
:103810004F8FBB61FEE7FFF7EDFC3B6B9A6B3B6B99
:10382000DB6B9A4202D33B68022B48D13B6B9B6B0C
:10383000FB62386BB9683A6800F0F4FBB8623B6B26
:103840009B6C002B17D03B68022B04D1FB6A002B2A
:1038500001D000BF2FE0386B396800F061FD0346EE
:10386000002B28D04C4B4FF080521A60BFF34F8F83
:10387000BFF36F8F1FE03B6B5B6A002B10D03B6B7D
:103880002433184601F092F90346002B13D0424B23
:103890004FF080521A60BFF34F8FBFF36F8F0AE073
:1038A000BB6A002B07D03C4B4FF080521A60BFF32D
:1038B0004F8FBFF36F8FFFF7CBFC012367E07B686F
:1038C000002B03D1FFF7C4FC002360E07B6B002BCF
:1038D00006D107F11003184601F0CCF901237B63F0
:1038E000FFF7B6FC00F046FFFFF784FC3B6B93F854
:1038F0004430DBB25BB2B3F1FF3F03D13B6B00223C
:1039000083F844203B6B93F84530DBB25BB2B3F1F4
:10391000FF3F03D13B6B002283F84520FFF798FC63
:1039200007F110023B1D1046194601F0B9F9034694
:10393000002B24D1386B00F07DFC0346002B18D0FF
:103940003B6B03F110027B681046194601F0E2F868
:10395000386B00F0F9FB00F01BFF0346002B15D17C
:103960000D4B4FF080521A60BFF34F8FBFF36F8F34
:103970000CE0386B00F0E8FB00F00AFF4BE7386B17
:1039800000F0E2FB00F004FF002300E043E71846EC
:103990003837BD4680BD00BF04ED00E080B58EB075
:1039A00000AFF860B9607A603B60FB683B633B6BDB
:1039B000002B09D14FF0FC0383F31188BFF36F8F05
:1039C000BFF34F8F7B62FEE7BB68002B03D13B6BDD
:1039D0001B6C002B01D1012300E00023002B09D137
:1039E0004FF0FC0383F31188BFF36F8FBFF34F8F4A
:1039F0003B62FEE73B68022B03D13B6BDB6B012B89
:103A000001D1012300E00023002B09D14FF0FC037A
:103A100083F31188BFF36F8FBFF34F8FFB61FEE716
:103A2000FFF7C2FCEFF311824FF0FC0383F3118820
:103A3000BFF36F8FBFF34F8FBA617B61BB69FB62CE
:103A40003B6B9A6B3B6BDB6B9A4202D33B68022B5E
:103A50003ED13B6B93F8453087F82B30386BB96813
:103A60003A6800F0DFFA97F92B30B3F1FF3F24D129
:103A70003B6B9B6C002B0DD0386B396800F050FC11
:103A80000346002B21D07B68002B1ED07B680122CF
:103A90001A601AE03B6B5B6A002B16D03B6B243339
:103AA000184601F083F80346002B0ED07B68002BEC
:103AB0000BD07B6801221A6007E097F82B300133A6
:103AC000DBB2DAB23B6B83F8452001237B6301E074
:103AD00000237B63FB6A3B613B6983F311887B6B4B
:103AE00018463837BD4680BD80B58EB000AF7860CF
:103AF00039607B683B633B6B002B09D14FF0FC03C3
:103B000083F31188BFF36F8FBFF34F8F3B62FEE7E4
:103B10003B6B1B6C002B09D04FF0FC0383F3118827
:103B2000BFF36F8FBFF34F8FFB61FEE73B6B1B68EB
:103B3000002B03D13B6B9B68002B01D1012300E0DC
:103B40000023002B09D14FF0FC0383F31188BFF34E
:103B50006F8FBFF34F8FBB61FEE7FFF725FCEFF3DD
:103B600011824FF0FC0383F31188BFF36F8FBFF313
:103B70004F8F7A613B617B69FB623B6B9B6BBB62E6
:103B80003B6BDA6BBB6A9A423DD93B6B93F845308D
:103B900087F82730BB6A5A1C3B6B9A6397F927302A
:103BA000B3F1FF3F24D13B6B9B6C002B0DD0386BE6
:103BB000002100F0B5FB0346002B21D03B68002B11
:103BC0001ED03B6801221A601AE03B6B5B6A002B37
:103BD00016D03B6B2433184600F0E8FF0346002B59
:103BE0000ED03B68002B0BD03B6801221A6007E027
:103BF00097F827300133DBB2DAB23B6B83F845200C
:103C000001237B6301E000237B63FB6AFB60FB68AD
:103C100083F311887B6B18463837BD4680BD00BFE3
:103C200080B58CB000AFF860B9607A600023FB62A9
:103C3000FB68BB62BB6A002B09D14FF0FC0383F326
:103C40001188BFF36F8FBFF34F8F3B62FEE7BB68F6
:103C5000002B03D1BB6A1B6C002B01D1012300E0B8
:103C60000023002B09D14FF0FC0383F31188BFF32D
:103C70006F8FBFF34F8FFB61FEE701F03FF9034603
:103C8000002B02D17B68002B01D1012300E000232F
:103C9000002B09D14FF0FC0383F31188BFF36F8F22
:103CA000BFF34F8FBB61FEE7FFF7A4FABB6A9B6BC4
:103CB0007B627B6A002B1FD0B86AB96800F01EFADD
:103CC0007B6A5A1EBB6A9A63BB6A1B69002B0FD0C2
:103CD000BB6A1033184600F069FF0346002B07D07B
:103CE0003E4B4FF080521A60BFF34F8FBFF36F8F80
:103CF000FFF7AEFA01236DE07B68002B03D1FFF7DD
:103D0000A7FA002366E0FB6A002B06D107F1100337
:103D1000184600F0AFFF0123FB62FFF799FA00F0AD
:103D200029FDFFF767FABB6A93F84430DBB25BB258
:103D3000B3F1FF3F03D1BB6A002283F84420BB6A82
:103D400093F84530DBB25BB2B3F1FF3F03D1BB6AFE
:103D5000002283F84520FFF77BFA07F110023B1D94
:103D60001046194600F09CFF0346002B24D1B86A88
:103D700000F04AFA0346002B18D0BB6A03F1240274
:103D80007B681046194600F0C5FEB86A00F0DCF901
:103D900000F0FEFC0346002B1BD1104B4FF080526D
:103DA0001A60BFF34F8FBFF36F8F12E0B86A00F055
:103DB000CBF900F0EDFC77E7B86A00F0C5F900F048
:103DC000E7FCB86A00F020FA0346002B01D000237C
:103DD00000E069E718463037BD4680BD04ED00E0DD
:103DE00080B58EB000AF7860396000237B637B685C
:103DF000FB6200233B63FB6A002B09D14FF0FC03FD
:103E000083F31188BFF36F8FBFF34F8F3B62FEE7E1
:103E1000FB6A1B6C002B09D04FF0FC0383F3118865
:103E2000BFF36F8FBFF34F8FFB61FEE701F066F8C2
:103E30000346002B02D13B68002B01D1012300E097
:103E40000023002B09D14FF0FC0383F31188BFF34B
:103E50006F8FBFF34F8FBB61FEE7FFF7CBF9FB6AB4
:103E60009B6BBB62BB6A002B24D0BB6A5A1EFB6AE9
:103E70009A63FB6A1B68002B04D101F0FFF902462C
:103E8000FB6A9A60FB6A1B69002B0FD0FB6A103338
:103E9000184600F08BFE0346002B07D0544B4FF022
:103EA00080521A60BFF34F8FBFF36F8FFFF7D0F9C7
:103EB000012399E03B68002B10D13B6B002B09D00C
:103EC0004FF0FC0383F31188BFF36F8FBFF34F8F65
:103ED0007B61FEE7FFF7BCF9002385E07B6B002BDD
:103EE00006D107F10C03184600F0C4FE01237B63E2
:103EF000FFF7AEF900F03EFCFFF77CF9FB6A93F8A0
:103F00004430DBB25BB2B3F1FF3F03D1FB6A002266
:103F100083F84420FB6A93F84530DBB25BB2B3F11F
:103F2000FF3F03D1FB6A002283F84520FFF790F999
:103F300007F10C023B461046194600F0B1FE03465D
:103F4000002B32D1F86A00F05FF90346002B26D02F
:103F5000FB6A1B68002B09D1FFF74CF9FB6A9B68D1
:103F6000184600F0E9FF3863FFF772F9FB6A03F1C6
:103F700024023B681046194600F0CCFDF86A00F0B8
:103F8000E3F800F005FC0346002B2CD1184B4FF052
:103F900080521A60BFF34F8FBFF36F8F23E0F86A30
:103FA00000F0D2F800F0F4FB57E7F86A00F0CCF824
:103FB00000F0EEFBF86A00F027F90346002B12D060
:103FC0003B6B002B0DD0FFF715F9F86A00F012F8E3
:103FD0007862FB6A9B681846796A01F0B5F8FFF7CA
:103FE00037F9002300E038E718463837BD4680BD72
:103FF00004ED00E080B485B000AF78607B685B6A58
:10400000002B06D07B681B6B1B68C3F10503FB60AC
:1040100001E00023FB60FB6818461437BD465DF8DD
:10402000047B704780B586B000AFF860B9607A60F5
:1040300000237B61FB689B6B3B61FB681B6C002B67
:104040000DD1FB681B68002B4FD1FB689B6818469D
:1040500000F0F4FF7861FB6800229A6045E07B681D
:10406000002B1AD1FB685A68FB681B6C1046B968B4
:104070001A4602F0A1FDFB685A68FB681B6C1A44E3
:10408000FB685A60FB685A68FB689B689A422CD3AD
:10409000FB681A68FB685A6027E0FB68DA68FB680F
:1040A0001B6C1046B9681A4602F086FDFB68DA6898
:1040B000FB681B6C5B421A44FB68DA60FB68DA68D9
:1040C000FB681B689A4207D2FB689A68FB681B6C06
:1040D0005B421A44FB68DA607B68022B05D13B69BE
:1040E000002B02D03B69013B3B613B695A1CFB68DA
:1040F0009A637B6918461837BD4680BD80B582B08B
:1041000000AF786039607B681B6C002B19D07B682E
:10411000DA687B681B6C1A447B68DA607B68DA6853
:104120007B689B689A4203D37B681A687B68DA6075
:104130007B68DA687B681B6C386811461A4602F0A7
:104140003BFD0837BD4680BD80B584B000AF7860C8
:10415000FFF750F87B6893F84530FB7321E07B68EC
:104160009B6C002B09D07868002100F0D9F8034639
:10417000002B12D000F004FE0FE07B685B6A002B7E
:104180000AD07B682433184600F010FD0346002B4C
:1041900003D000F0F5FD00E007E0FB7B013BDBB264
:1041A000FB7397F90F30002BD9DC7B68FF2283F873
:1041B0004520FFF74DF8FFF71DF87B6893F8443072
:1041C000BB7313E07B681B69002B0ED07B68103338
:1041D000184600F0EBFC0346002B01D000F0D0FDA8
:1041E000BB7B013BDBB2BB7300E003E097F90E3011
:1041F000002BE7DC7B68FF2283F84420FFF728F8D8
:104200001037BD4680BD00BF80B584B000AF786078
:10421000FEF7F0FF7B689B6B002B02D10123FB6054
:1042200001E00023FB60FFF713F8FB681846103726
:10423000BD4680BD80B584B000AF7860FEF7DAFF80
:104240007B689A6B7B68DB6B9A4202D10123FB602F
:1042500001E00023FB60FEF7FBFFFB681846103708
:10426000BD4680BD80B485B000AF78603960002362
:10427000FB6014E00E4AFB6852F83330002B0BD180
:104280000B49FB683A6841F83320094AFB68DB00B8
:1042900013447A685A6005E0FB680133FB60FB68F1
:1042A000072BE7D91437BD465DF8047B704700BF84
:1042B0005CCBFF1F80B586B000AFF860B9607A6054
:1042C000FB687B61FEF796FF7B6993F84430DBB2B5
:1042D0005BB2B3F1FF3F03D17B69002283F8442036
:1042E0007B6993F84530DBB25BB2B3F1FF3F03D19A
:1042F0007B69002283F84520FEF7AAFF7B699B6B50
:10430000002B06D17B6924331846B9687A6800F01F
:1043100023FC7869FFF718FF1837BD4680BD00BF42
:1043200080B588B000AF786039607B689B6CBB61FA
:104330000023FB61BB69002B09D14FF0FC0383F321
:104340001188BFF36F8FBFF34F8F3B61FEE7BB69EF
:104350009A6BBB69DB6B9A4209D34FF0FC0383F382
:104360001188BFF36F8FBFF34F8FFB60FEE7BB6910
:104370009A6BBB69DB6B9A4226D2BB6993F84530D6
:10438000FB753B1DB86919463A68FFF74BFEF861AB
:1043900097F91730B3F1FF3F0ED1BB695B6A002B71
:1043A00012D0BB692433184600F000FC0346002BF2
:1043B0000AD00123FB6107E0FB7D0133DBB2DAB2F7
:1043C000BB6983F84520FFE7FB6918462037BD46E7
:1043D00080BD00BF80B58CB004AFF860B9603B60B1
:1043E0001346FB80FB889B001846FFF719F878619D
:1043F0007B69002B0ED07020FFF712F8F861FB6983
:10440000002B03D0FB697A691A6305E07869FFF72E
:1044100019F801E00023FB61FB69002B13D0FA8837
:10442000BB6A0093FB6A0193FB6902930023039329
:10443000F868B9683B6800F00FF8F86900F0AEF86A
:104440000123BB6102E04FF0FF33BB61BB6918463B
:104450002037BD4680BD00BF80B588B000AFF86092
:10446000B9607A603B603B6B1A6B7B689B001046BF
:10447000A5211A4602F0ABFB3B6B1A6B7B6803F17C
:104480008043013B9B001344BB61BB6923F00703DE
:10449000BB61BB6903F00703002B09D04FF0FC039D
:1044A00083F31188BFF36F8FBFF34F8F7B61FEE7FC
:1044B000BB68002B1ED00023FB6113E0BA68FB69C8
:1044C000134419783A6BFB69134430330A461A7166
:1044D000BA68FB6913441B78002B00D105E0FB6927
:1044E0000133FB61FB690F2BE8D93B6B002283F89A
:1044F000432003E03B6B002283F83420BB6A042B8B
:1045000001D90423BB623B6BBA6ADA623B6BBA6ABD
:10451000DA643B6B00221A653B6B04331846FEF7E6
:10452000C3FF3B6B18331846FEF7BEFF3B6B3A6B7D
:104530001A61BB6AC3F105023B6B9A613B6B3A6B34
:104540005A620023FB6109E03A6BFB6914339B005C
:10455000134400225A60FB690133FB61FB69042BA1
:10456000F2D93B6B00229A663B6B002283F86C20E9
:104570003B6B002283F86D20B869F9683A68FEF752
:1045800011FD02463B6B1A60FB6A002B02D0FB6AEE
:104590003A6B1A602037BD4680BD00BF80B582B03F
:1045A00000AF7860FEF726FE2D4B1B6801332C4AC6
:1045B00013602C4B1B68002B09D12A4A7B681360BF
:1045C000274B1B68012B10D100F0FEFB0DE0264BA2
:1045D0001B68002B09D1234B1B68DA6A7B68DB6AF6
:1045E0009A4202D81F4A7B681360204B1B68013334
:1045F0001E4A13601D4B1A687B685A647B68DB6A2D
:104600001A46012303FA02F2194B1B681343184A96
:1046100013607B68DA6A13469B0013449B00154ABB
:104620001A447B68043310461946FEF749FFFEF72B
:104630000FFE0D4B1B68002B0ED00A4B1B68DA6A6D
:104640007B68DB6A9A4207D20B4B4FF080521A60AC
:10465000BFF34F8FBFF36F8F0837BD4680BD00BFDC
:10466000B8CAFF1FE0C9FF1FC4CAFF1FD4CAFF1F7B
:10467000C0CAFF1FE4C9FF1F04ED00E080B584B08D
:1046800000AF78600023FB607B68002B16D0124BD4
:104690001B68002B09D04FF0FC0383F31188BFF394
:1046A0006F8FBFF34F8FBB60FEE700F063F8786851
:1046B000002100F0F7FD00F06BF8F860FB68002BBC
:1046C00007D1064B4FF080521A60BFF34F8FBFF3F4
:1046D0006F8F1037BD4680BDE0CAFF1F04ED00E0BC
:1046E00080B586B002AF002300931C4B01931C4899
:1046F0001C4982220023FFF76DFEF860FB68012B46
:1047000002D100F039FEF860FB68012B15D14FF0A3
:10471000FC0383F31188BFF36F8FBFF34F8FBB6030
:10472000114B4FF0FF321A60104B01221A60104BF0
:1047300000221A60FEF7C0FC0DE0FB68B3F1FF3FFA
:1047400009D14FF0FC0383F31188BFF36F8FBFF3E0
:104750004F8F7B60FEE71037BD4680BDDCCAFF1F70
:10476000994D0008DC6E0008D8CAFF1FC4CAFF1F9D
:10477000BCCAFF1F80B400AF044B1B680133034A5F
:104780001360BD465DF8047B704700BFE0CAFF1FA1
:1047900080B584B000AF0023FB600023BB60424BB8
:1047A0001B68002B09D14FF0FC0383F31188BFF382
:1047B0006F8FBFF34F8F3B60FEE7FEF71BFD3A4B59
:1047C0001B68013B384A1360374B1B68002B63D1D1
:1047D000364B1B68002B5FD030E0354BDB68DB6865
:1047E000FB60FB6818331846FEF7C6FEFB6804330F
:1047F0001846FEF7C1FEFB68DB6A1A46012303FA7E
:1048000002F22C4B1B6813432A4A1360FB68DA6AD6
:1048100013469B0013449B00274A1A44FB68043349
:1048200010461946FEF74CFEFB68DA6A234B1B68FC
:10483000DB6A9A4202D3224B01221A601C4B1B688E
:10484000002BCAD1FB68002B01D000F037FB1D4BB9
:104850001B687B607B68002B10D000F047F8034694
:10486000002B02D0164B01221A607B68013B7B6053
:104870007B68002BF1D1134B00221A60104B1B6890
:10488000002B09D00123BB600F4B4FF080521A6000
:10489000BFF34F8FBFF36F8FFEF7DAFCBB6818468C
:1048A0001037BD4680BD00BFE0CAFF1FB8CAFF1F5A
:1048B00078CAFF1FC0CAFF1FE4C9FF1FE0C9FF1F5E
:1048C000CCCAFF1FC8CAFF1F04ED00E080B483B04C
:1048D00000AF054B1B687B607B6818460C37BD46F4
:1048E0005DF8047B704700BFBCCAFF1F80B586B06F
:1048F00000AF00237B614F4B1B68002B40F0898089
:104900004D4B1B6801333B614B4A3B6913603B696C
:10491000002B1FD1494B1B681B68002B09D04FF09F
:10492000FC0383F31188BFF36F8FBFF34F8F3B609E
:10493000FEE7424B1B68FB60414B1B683F4A13601C
:104940003F4AFB6813603F4B1B6801333D4A1360CD
:1049500000F0B4FA3C4B1B683A699A424AD3374B91
:104960001B681B68002B04D1374B4FF0FF321A60D5
:1049700040E0324B1B68DB68DB68BB60BB685B6890
:104980007B603A697B689A4203D22F4A7B68136046
:1049900030E0BB6804331846FEF7EEFDBB689B6A47
:1049A000002B04D0BB6818331846FEF7E5FDBB6842
:1049B000DB6A1A46012303FA02F2244B1B681343F5
:1049C000224A1360BB68DA6A13469B0013449B00BB
:1049D0001F4A1A44BB68043310461946FEF770FD9F
:1049E000BB68DA6A1B4B1B68DB6A9A4201D301235E
:1049F0007B61B4E7174B1B68DA6A154913469B00C5
:104A000013449B000B441B68012B01D901237B61DC
:104A100004E0114B1B6801330F4A13600F4B1B68F6
:104A2000002B01D001237B617B6918461837BD46F6
:104A300080BD00BFE0CAFF1FBCCAFF1F70CAFF1FB6
:104A400074CAFF1FD0CAFF1FD8CAFF1FC0CAFF1FEA
:104A5000E4C9FF1FE0C9FF1FC8CAFF1FCCCAFF1F60
:104A600080B487B000AF264B1B68002B03D0254BCA
:104A700001221A603EE0234B00221A60224B1B6881
:104A8000FB60FB68B3FA83F3FB72FB7AC3F11F038D
:104A90007B611E497A6913469B0013449B000B44BB
:104AA0001B68002B09D14FF0FC0383F31188BFF37F
:104AB0006F8FBFF34F8F7B60FEE77A6913469B00D1
:104AC00013449B00114A13443B613B695B685A687D
:104AD0003B695A603B695A683B6908339A4204D182
:104AE0003B695B685A683B695A603B695B68DB6895
:104AF000074A13601C37BD465DF8047B704700BF52
:104B0000E0CAFF1FCCCAFF1FC0CAFF1FE4C9FF1FB6
:104B1000E0C9FF1F80B584B000AF786039607B6862
:104B2000002B09D14FF0FC0383F31188BFF36F8F83
:104B3000BFF34F8FFB60FEE7064B1B6818337868A6
:104B40001946FEF7E1FC3868012100F0ABFB103795
:104B5000BD4680BDE0C9FF1F80B586B000AFF860DC
:104B6000B9607A60FB68002B09D14FF0FC0383F336
:104B70001188BFF36F8FBFF34F8F7B61FEE70A4B46
:104B80001B681833F8681946FEF79AFC7B68002BFF
:104B900002D04FF0FF33BB60B868796800F082FB49
:104BA0001837BD4680BD00BFE0C9FF1F80B586B085
:104BB00000AF78607B68DB68DB683B613B69002B9A
:104BC00009D14FF0FC0383F31188BFF36F8FBFF35C
:104BD0004F8FFB60FEE73B6918331846FEF7CCFCAD
:104BE0001E4B1B68002B1ED13B6904331846FEF791
:104BF000C3FC3B69DB6A1A46012303FA02F2184B35
:104C00001B681343164A13603B69DA6A13469B001C
:104C100013449B00134A1A443B6904331046194657
:104C2000FEF74EFC05E03B6918330F481946FEF7C6
:104C300047FC3B69DA6A0D4B1B68DB6A9A4205D96F
:104C400001237B610A4B01221A6001E000237B6192
:104C50007B6918461837BD4680BD00BFE0CAFF1FFC
:104C6000C0CAFF1FE4C9FF1F78CAFF1FE0C9FF1FAA
:104C7000CCCAFF1F80B483B000AF7860064B1A68BF
:104C80007B681A60054B1A687B685A600C37BD4612
:104C90005DF8047B704700BFD0CAFF1FBCCAFF1F6E
:104CA00080B588B000AF786039607B68002B09D18F
:104CB0004FF0FC0383F31188BFF36F8FBFF34F8F67
:104CC0003B61FEE73B68002B09D14FF0FC0383F307
:104CD0001188BFF36F8FBFF34F8FFB60FEE7FEF7C6
:104CE00089FA244B1B68BB617B685B68BA69D31A7D
:104CF0007B61214B1B6893F86D30002B07D01E4B56
:104D00001B68002283F86D200123FB612BE03B68C8
:104D10001B68B3F1FF3F02D10023FB6123E07B68F6
:104D20001A68164B1B689A4207D07B685A68BB69A1
:104D30009A4202D80123FB6115E03B681A687B693F
:104D40009A420BD93B681A687B69D21A3B681A6091
:104D50007868FFF78FFF0023FB6104E03B680022C7
:104D60001A600123FB61FEF773FAFB6918462037CE
:104D7000BD4680BDBCCAFF1FE0C9FF1FD0CAFF1FD0
:104D800080B400AF034B01221A60BD465DF8047B7E
:104D9000704700BFCCCAFF1F80B582B000AF7860FB
:104DA00000F050F8064B1B68012B07D9054B4FF05C
:104DB00080521A60BFF34F8FBFF36F8FF0E700BFD1
:104DC000E4C9FF1F04ED00E080B582B000AF00230E
:104DD0007B600CE07A6813469B0013449B00114AE9
:104DE00013441846FEF740FB7B6801337B607B6809
:104DF000042BEFD90C48FEF737FB0C48FEF734FBC9
:104E00000B48FEF731FB0B48FEF72EFB0A48FEF776
:104E10002BFB0A4B044A1A60094B044A1A600837F4
:104E2000BD4680BDE4C9FF1F48CAFF1F5CCAFF1F03
:104E300078CAFF1F8CCAFF1FA4CAFF1F70CAFF1FBA
:104E400074CAFF1F80B582B000AF19E0FEF7D2F937
:104E50000F4BDB68DB687B607B6804331846FEF72A
:104E60008BFB0C4B1B68013B0A4A13600A4B1B6807
:104E7000013B094A1360FEF7EBF9786800F00EF881
:104E8000054B1B68002BE1D10837BD4680BD00BF34
:104E90008CCAFF1FB8CAFF1FA0CAFF1F80B582B00F
:104EA00000AF78607B681B6B1846FEF7CBFA78681A
:104EB000FEF7C8FA0837BD4680BD00BF80B483B096
:104EC00000AF0C4B1B681B68002B04D10A4B4FF042
:104ED000FF321A6008E0074B1B68DB68DB687B6009
:104EE0007B685B68044A13600C37BD465DF8047B41
:104EF000704700BF70CAFF1FD8CAFF1F80B483B0BD
:104F000000AF0B4B1B68002B02D101237B6008E034
:104F1000084B1B68002B02D102237B6001E00023B9
:104F20007B607B6818460C37BD465DF8047B704794
:104F3000C4CAFF1FE0CAFF1F80B584B000AF78600D
:104F40007B68BB600023FB607B68002B6BD0BB6879
:104F5000DA6A374B1B68DB6A9A425BD2BB689B6993
:104F6000002B06DB324B1B68DB6AC3F10502BB6812
:104F70009A61BB685969BB68DA6A13469B0013449F
:104F80009B002C4A134499423CD1BB680433184619
:104F9000FEF7F2FA0346002B15D1BB68DA6A254901
:104FA00013469B0013449B000B441B68002B0AD143
:104FB000BB68DB6A1A4601239340DA431E4B1B6829
:104FC00013401D4A13601A4B1B68DA6ABB68DA6229
:104FD000BB68DB6A1A46012303FA02F2164B1B6810
:104FE0001343154A1360BB68DA6A13469B001344E7
:104FF0009B00104A1A44BB68043310461946FEF75A
:105000005FFA04E00A4B1B68DA6ABB68DA620123C4
:10501000FB6008E0BB68DA6C054B1B68DB6A9A42F0
:1050200001D20123FB60FB6818461037BD4680BDE6
:10503000E0C9FF1FE4C9FF1FC0CAFF1F80B586B0CB
:1050400000AF78607B683B6100237B617B68002B4D
:105050006ED03A4B1B683A699A4209D04FF0FC0374
:1050600083F31188BFF36F8FBFF34F8FFB60FEE7B1
:105070003B691B6D002B09D14FF0FC0383F31188B2
:10508000BFF36F8FBFF34F8FBB60FEE73B691B6DB4
:105090005A1E3B691A653B69DA6A3B69DB6C9A42C6
:1050A00046D03B691B6D002B42D13B690433184647
:1050B000FEF762FA0346002B15D13B69DA6A2049F4
:1050C00013469B0013449B000B441B68002B0AD122
:1050D0003B69DB6A1A4601239340DA43194B1B688C
:1050E0001340184A13603B69DA6C3B69DA623B692A
:1050F000DB6AC3F105023B699A613B69DB6A1A46C8
:10510000012303FA02F20F4B1B6813430D4A13608D
:105110003B69DA6A13469B0013449B00084A1A4411
:105120003B69043310461946FEF7CAF901237B6137
:105130007B6918461837BD4680BD00BFE0C9FF1F18
:10514000E4C9FF1FC0CAFF1F80B588B000AF7860F8
:1051500039607B68BB6101237B617B68002B00F0B9
:105160008380BB691B6D002B09D14FF0FC0383F3D7
:105170001188BFF36F8FBFF34F8FFB60FEE7BB69F2
:10518000DA6C3B689A4202D23B68FB6102E0BB6981
:10519000DB6CFB61BB69DA6AFB699A4264D0BB696C
:1051A0001A6D7B699A425FD1314B1B68BA699A428A
:1051B00009D14FF0FC0383F31188BFF36F8FBFF366
:1051C0004F8FBB60FEE7BB69DB6A3B61BB69FA6975
:1051D000DA62BB699B69002B04DBFB69C3F1050242
:1051E000BB699A61BB6959693A6913469B001344CC
:1051F0009B00204A1344994236D1BB6904331846B8
:10520000FEF7BAF90346002B15D1BB69DA6A1949D2
:1052100013469B0013449B000B441B68002B0AD1D0
:10522000BB69DB6A1A4601239340DA43124B1B68C1
:105230001340114A1360BB69DB6A1A46012303FA63
:1052400002F20D4B1B6813430B4A1360BB69DA6A09
:1052500013469B0013449B00064A1A44BB6904335F
:1052600010461946FEF72CF92037BD4680BD00BF19
:10527000E0C9FF1FE4C9FF1FC0CAFF1F80B400AF11
:10528000074B1B68002B04D0054B1B681A6D0132BD
:105290001A65034B1B681846BD465DF8047B7047D2
:1052A000E0C9FF1F80B584B000AF786039602B4B38
:1052B0001B68FB602A4B1B68002283F86D20284B7B
:1052C0001B6804331846FEF757F90346002B0BD131
:1052D000234B1B68DB6A1A4601239340DA43214BB8
:1052E0001B6813401F4A13607B68B3F1FF3F0AD16C
:1052F0003B68002B07D01A4B1B6804331A48194629
:10530000FEF7DEF826E0FA687B681344BB60144BB6
:105310001B68BA685A60BA68FB689A4209D2134B94
:105320001A680F4B1B68043310461946FEF7ECF859
:1053300010E00F4B1A680A4B1B68043310461946DD
:10534000FEF7E2F80B4B1B68BA689A4202D2094A90
:10535000BB6813601037BD4680BD00BFBCCAFF1FCD
:10536000E0C9FF1FC0CAFF1FA4CAFF1F74CAFF1FE6
:1053700070CAFF1FD8CAFF1F80B584B002AF0023D8
:105380007B6000F0F3FA114B1B68002B0BD002235B
:1053900000930F4B01930F480F494FF48272002383
:1053A000FFF718F878607B68002B09D14FF0FC03F9
:1053B00083F31188BFF36F8FBFF34F8F3B60FEE71E
:1053C0007B6818460837BD4680BD00BF14CBFF1F61
:1053D00018CBFF1F19550008F46E000880B58AB07D
:1053E00000AFF860B9607A603B6000237B62FB68C5
:1053F000002B09D14FF0FC0383F31188BFF36F8FAB
:10540000BFF34F8F3B62FEE71C4B1B68002B30D075
:10541000BB683B617B687B61FB68BB61BB68052B3C
:105420001CDCFFF76BFD0346022B0BD1134B1A68F4
:1054300007F11003104619463A6B0023FEF790F966
:10544000786216E00D4B1A6807F1100310461946F2
:1054500000220023FEF784F978620AE0074B1A68FD
:1054600007F11003104619463A680023FEF796FA32
:1054700078627B6A18462837BD4680BD14CBFF1F73
:1054800080B588B002AF78603960224B1B68DB685A
:10549000DB687B617B6904331846FEF76DF87B6936
:1054A00093F8283003F00403002B22D07B699A691B
:1054B0007B681344786919463A687B6800F0D0F835
:1054C0000346002B1ED000230093786900217A68E0
:1054D0000023FFF783FF38613B69002B12D14FF0A7
:1054E000FC0383F31188BFF36F8FBFF34F8FFB6013
:1054F000FEE77B6993F8283023F00103DAB27B6979
:1055000083F828207B691B6A786998471837BD465D
:1055100080BD00BF0CCBFF1F80B584B000AF7860AA
:1055200007F10803184600F057F8F860BB68F86800
:10553000194600F003F800F0D5F8F1E780B584B023
:1055400000AF78603960FFF715F907F108031846D6
:1055500000F066F8F860BB68002B31D13B68002B87
:105560000AD17A68FB689A4206D8FFF711F9786881
:10557000F968FFF785FF25E03B68002B08D0134B47
:105580001B681B68002B01D1012300E000233B6056
:105590000F4B19687A68FB68D31A084619463A68AF
:1055A000FEF788FEFFF7F4F80346002B0AD1094BFB
:1055B0004FF080521A60BFF34F8FBFF36F8F01E03F
:1055C000FFF7E6F81037BD4680BD00BF10CBFF1FC8
:1055D00014CBFF1F04ED00E080B485B000AF78600D
:1055E0000E4B1B681B68002B01D1012200E000223A
:1055F0007B681A607B681B68002B05D1074B1B6812
:10560000DB681B68FB6001E00023FB60FB68184659
:105610001437BD465DF8047B704700BF0CCBFF1FFD
:1056200080B584B000AF7860FFF750F9F8600B4B9D
:105630001B68FA689A4205D200F036F97B680122AD
:105640001A6002E07B6800221A60044AFB6813605B
:10565000FB6818461037BD4680BD00BF1CCBFF1F3E
:1056600080B586B000AFF860B9607A603B60002317
:105670007B61FB68BA685A60FB68FA681A61BA68AD
:105680007B689A4212D87A683B68D21AFB689B6999
:105690009A4202D301237B611BE0104B1A68FB681E
:1056A000043310461946FDF72FFF12E07A683B6875
:1056B0009A4206D2BA683B689A4202D301237B61C0
:1056C00007E0074B1A68FB68043310461946FDF7DC
:1056D0001BFF7B6918461837BD4680BD10CBFF1FE6
:1056E0000CCBFF1F80B58EB002AFCBE07B68002BE8
:1056F00018DA3B1D0433FB62FB6A002B09D14FF023
:10570000FC0383F31188BFF36F8FBFF34F8FFB61EF
:10571000FEE7FB6A1B68FA6A5168FA6A92680846F3
:10572000114698477B68002BC0F2AC80FB68BB62D7
:10573000BB6A5B69002B04D0BB6A04331846FDF7D3
:105740001BFF3B461846FFF76BFF78627B68092B0F
:1057500000F2978001A252F823F000BF855700089D
:105760008557000885570008FB5700080F580008A8
:10577000595800088557000885570008FB5700084E
:105780000F580008BB6A93F8283043F00103DAB2DF
:10579000BB6A83F82820BA68BB6A9B691A44BB6855
:1057A000B86A11467A6AFFF75BFF0346002B23D0E5
:1057B000BB6A1B6AB86A9847BB6A93F8283003F043
:1057C0000403002B18D0BA68BB6A9B691A440023F3
:1057D0000093B86A00210023FFF700FE38623B6A9D
:1057E000002B09D14FF0FC0383F31188BFF36F8FB7
:1057F000BFF34F8FBB61FEE744E0BB6A93F82830EC
:1058000023F00103DAB2BB6A83F828203AE0BB6ACE
:1058100093F8283043F00103DAB2BB6A83F82820FA
:10582000BA68BB6A9A61BB6A9B69002B09D14FF0C9
:10583000FC0383F31188BFF36F8FBFF34F8F7B613E
:10584000FEE7BB6A9A697B6A1344B86A19467A6AAA
:105850007B6AFFF705FF15E0BB6A93F8283003F079
:105860000203002B03D1B86AFDF7ECFD08E0BB6A28
:1058700093F8283023F00103DAB2BB6A83F82820BA
:1058800000E000BF074B1A683B1D10461946002276
:10589000FEF7C6F90346002B7FF428AF3037BD462C
:1058A00080BD00BF14CBFF1F80B588B002AF47E0BA
:1058B0002C4B1B68DB681B687B612A4B1B68DB6811
:1058C000DB683B613B6904331846FDF755FE3B69D5
:1058D0001B6A386998473B6993F8283003F0040342
:1058E000002B2DD03B699A697B691344FB60FA68F1
:1058F0007B699A420ED93B69FA685A603B693A69FA
:105900001A61184B1A683B69043310461946FDF7B3
:10591000FBFD15E000230093386900217A6900231C
:10592000FFF75CFDB860BB68002B09D14FF0FC03AA
:1059300083F31188BFF36F8FBFF34F8F3B60FEE798
:10594000084B1B681B68002BB2D1064B1B687B60A1
:10595000054B1B68034A1360034A7B6813601837C2
:10596000BD4680BD0CCBFF1F10CBFF1F80B500AF25
:10597000FDF740FC124B1B68002B1DD11148FDF7B1
:1059800073FD1148FDF770FD104B0E4A1A60104B65
:105990000D4A1A60052010210022FDF77FFE024605
:1059A000074B1A60064B1B68002B05D0044B1B6885
:1059B00018460849FEF756FCFDF74AFC80BD00BFBB
:1059C00014CBFF1FE4CAFF1FF8CAFF1F0CCBFF1F39
:1059D00010CBFF1FFC6E000880B582B000AF78606E
:1059E0007B6819687B681A7C7B680433084611461B
:1059F0001A46FAF721FD7B6819687B681A7C7B6878
:105A00005B7C084611461A46FBF798FC00231846B3
:105A10000837BD4680BD00BF80B485B000AF786058
:105A20007B6803F00703FB600C4BDB68BB60BA6864
:105A30004FF6FF031340BB60FB681A02BB681343B9
:105A400043F0BF6343F40033BB60044ABB68D360D8
:105A50001437BD465DF8047B704700BF00ED00E0E1
:105A600080B582B000AF0120FFF7D6FF72B6214BA0
:105A7000214A9A60BFF34F8F62B61E4A1D4BD3F87E
:105A8000883043F47003C2F888301C4B03F5805310
:105A900014331B687B607B6823F00F037B607B689B
:105AA00043F002037B60154B03F5805314337A688F
:105AB0001A60104A0F4B5B6923F0100353610D4AC3
:105AC0000C4B5B6923F0080353610A4A094B5B6A7C
:105AD00023F480335362074A064B5B6A23F4003396
